:020000040800F2
:1000000088B00020290300089D4A0008E93500084F
:10001000994A0008110B0008157E00080000000036
:10002000000000000000000000000000690200085D
:100030006F14000800000000C50200088577000862
:100040004303000843030008430300084303000878
:100050004303000843030008AD14000843030008ED
:1000600043030008B7140008C11400084303000844
:10007000150B00084303000843030008430300086E
:100080004303000843030008430300084303000838
:10009000430300084303000843030008CB1400088F
:1000A0004303000843030008430300084303000818
:1000B0004303000843030008430300084303000808
:1000C00043030008430300084303000843030008F8
:1000D000430300084303000843030008F17C0008C1
:1000E00043030008430300084303000843030008D8
:1000F00043030008430300084303000843030008C8
:1001000043030008430300084303000843030008B7
:1001100043030008430300084303000843030008A7
:100120004303000843030008250B000843030008AD
:100130004303000843030008430300084303000887
:100140004303000843030008430300084303000877
:100150004303000843030008430300084303000867
:100160004303000843030008430300084303000857
:100170004303000843030008430300080000000095
:10018000430300084303000800F002F800F05CF8A5
:100190000AA090E8000C82448344AAF10107DA45E2
:1001A00001D100F051F8AFF2090EBAE80F0013F0D8
:1001B000010F18BFFB1A43F00103184778B600007F
:1001C00098B600000A444FF0000C10F8013B13F001
:1001D000070408BF10F8014B1D1108BF10F8015BA0
:1001E000641E05D010F8016B641E01F8016BF9D193
:1001F00013F0080F1EBF10F8014BAD1C0C1B09D1EA
:100200006D1E58BF01F801CBFAD505E014F8016B5B
:1002100001F8016B6D1EF9D59142D6D370470000ED
:100220000023002400250026103A28BF78C1FBD8FF
:10023000520728BF30C148BF0B6070471FB50BF095
:1002400080FA1FBD10B510BD00F002FA1146FFF78D
:10025000F5FF09F02DF900F020FA03B4FFF7F2FFE3
:1002600003BC00F023FA00002C4B19680868B0E8C2
:10027000F04F80F30988BFF36F8F4FF0000080F3D9
:10028000118870470000000008480068006880F38B
:1002900008884FF0000080F3148862B661B6BFF39F
:1002A0004F8FBFF36F8F00DF00BF00BF08ED00E08E
:1002B000DFF80C00016841F470010160704700BF75
:1002C00088ED00E0EFF30980BFF36F8F134B1A68DE
:1002D0001EF0100F08BF20ED108A20E9F04F1060CB
:1002E00009B44FF0500080F31188BFF34F8FBFF374
:1002F0006F8F0AF08BFA4FF0000080F3118809BC71
:1003000019680868B0E8F04F1EF0100F08BFB0EC95
:10031000108A80F30988BFF36F8F7047C0000020F8
:10032000EFF30580704700000948804709480047FF
:10033000FEE7FEE7FEE7FEE7FEE7FEE7FEE7FEE795
:10034000FEE7FEE704480549054A064B70470000F2
:100350004D780008890100088870002088B00020CE
:10036000889000208890002053EA020C00F06980F9
:100370002DE9F04B4FF00006002B1FBFB3FA83F5B9
:1003800003FA05F424FA05F65E4012BF1643B2FAEA
:1003900082F502FA05F4C5F120051EBF22FA05FC1C
:1003A00044EA0C04203556EA044C4FEA144418BFC2
:1003B000641C4FF000084FF00009904271EB030CF1
:1003C00039D3002919BFB1FA81F701FA07F6B0FA5B
:1003D00080F700FA07F6C7F120071EBF20FA07FCD6
:1003E00046EA0C062037B6FBF4FCA7EB0507103FE6
:1003F00007F01F0BCBF120060CFA0BFB2CFA06F6CC
:1004000044BFB3460026202FA4BF5E464FF0000B2A
:100410005BEA060C08BF4FF0010B19EB0B09ABFBB5
:10042000027C48EB0608C01B06FB02CC0BFB03CC8E
:1004300071EB0C01C1E70B46024641464846BDE858
:10044000F08B13B54FF000004FF00001AFF30080C8
:10045000BDE81C40704710B5431C02E010F8011BBA
:1004600071B18107FAD14FF0013202C88C1A8C4366
:1004700014EAC211F9D0C01A0A0603D0C01E10BD7A
:10048000C01A10BD0A0401D0801E10BD0902FCD0A4
:10049000401E10BD032A40F2308010F0030C00F023
:1004A000158011F8013BBCF1020F624498BF11F8AE
:1004B00001CB00F8013B38BF11F8013BA2F1040267
:1004C00098BF00F801CB38BF00F8013B11F00303DF
:1004D00000F02580083AC0F0088051F8043B083A43
:1004E00051F804CBA0E80810F5E7121D5CBF51F8E5
:1004F000043B40F8043BAFF30080D20724BF11F85F
:10050000013B11F801CB48BF11F8012B24BF00F8C3
:10051000013B00F801CB48BF00F8012B704710B534
:10052000203AC0F00B80B1E81850203AA0E81850EB
:10053000B1E81850A0E81850BFF4F5AF5FEA027CAC
:1005400024BFB1E81850A0E8185044BF18C918C01B
:10055000BDE810405FEA827C24BF51F8043B40F8BC
:10056000043B08BF7047D20728BF31F8023B48BFA1
:1005700011F8012B28BF20F8023B48BF00F8012BDF
:10058000704702F0FF0343EA032242EA024200F00E
:1005900037B84FF0000200B513469446964620390E
:1005A00022BFA0E80C50A0E80C50B1F12001BFF42C
:1005B000F7AF090728BFA0E80C5048BF0CC05DF892
:1005C00004EB890028BF40F8042B08BF704748BFE0
:1005D00020F8022B11F0804F18BF00F8012B704754
:1005E00070477047704710B500F02AF8006810BDDA
:1005F00010B5044600F024F8046010BD4FF000026E
:100600000429C0F0128010F0030C3FF4C4AFCCF109
:10061000040CBCF1020F18BF00F8012BA8BF20F892
:10062000022BA1EB0C01FFF7B6BF5FEAC17C24BF30
:1006300000F8012B00F8012B48BF00F8012B704790
:100640000048704724700020004870472470002044
:100650007546FFF7F9FFAE4605006946534620F0A0
:100660000700854618B020B5FFF76CFEBDE82040B6
:100670004FF000064FF000074FF000084FF0000B5E
:1006800021F00701AC46ACE8C009ACE8C009ACE811
:10069000C009ACE8C0098D46704710B50446AFF3F9
:1006A00000802046BDE81040FFF7D7BD0149182063
:1006B000ABBEFEE72600020070470000B7EE000A5E
:1006C00080ED000A9FED060A80ED010A9FED040A05
:1006D00080ED020A9FED020A80ED030A70470000D8
:1006E000000000002DE9F0412DED028B0746B0EE31
:1006F000408A0C4615461E46D6ED024AB0EE644AC4
:10070000D6ED014AF0EE643AD6ED004AB0EE643A16
:10071000D5ED024AF0EE642AD5ED014AB0EE642A26
:10072000D5ED004AF0EE641AD4ED024AB0EE641A38
:10073000D4ED014AF0EE640AD4ED004AB0EE640A4A
:10074000384603F055FDBDEC028BBDE8F08100009A
:1007500010B501221021024801F0B6F910BD0000C9
:100760000000024010B500221021024801F0ACF94F
:1007700010BD0000000002407047000010B50122CB
:100780001146024801F0A0F910BD0000000402402B
:1007900010B500220121024801F096F910BD0000B9
:1007A0000004024010B543781B021BB204782343B7
:1007B00000EE103AB8EEC01A1C4BD3ED001A21EE31
:1007C000211A81ED001AC3781B021BB284782343DF
:1007D00000EE103AB8EEC01A144BD3ED001A21EE19
:1007E000211A81ED011A43791B021BB204792343BC
:1007F00000EE103AB8EEC01A0C4BD3ED001A21EE01
:10080000211A81ED021A037A1B04C47943EA0423F6
:100810008479234300EE903AB8EE601ADFED041AB3
:1008200021EE211A82ED001A10BD00008800002080
:1008300000401C42704710B50446204608F09AFE5E
:1008400010BD10B50446204608F0CEF910BD0000DA
:100850004278120212B203781A4300EE102AF8EE20
:10086000C00A144A92ED001A60EE810AC1ED000A36
:10087000C278120212B283781A4300EE102AF8EE00
:10088000C00A0C4A92ED001A60EE810AC1ED010A1D
:100890004279120212B203791A4300EE102AF8EEDE
:1008A000C00A044A92ED001A60EE810AC1ED020A04
:1008B000704700008C00002010B50024FFF75CFF9B
:1008C000FFF7B8FF07F018FF10B144F0800402E012
:1008D00007F078FE044308F007F910B144F0400433
:1008E00002E008F087F80443204610BD2DE9FC41E2
:1008F00005460E461746002000900190FFF732FF94
:10090000922000F0D1F806226946122000F0ACF8DF
:10091000FFF71EFF9DF80100000200B29DF80010D5
:1009200040EA010400EE104AB8EEC00A4C48D0ED8F
:10093000000A20EE200A86ED000A9DF8030000025E
:1009400000B29DF8021040EA010400EE104AB8EE31
:10095000C00A4348D0ED000A20EE200A86ED010AC5
:100960009DF80500000200B29DF8041040EA010461
:1009700000EE104AB8EEC00A3948D0ED000A20EE69
:10098000200A86ED020AFFF703FF082269460020CD
:1009900000F06AF8FFF7F2FE9DF800000F2838D14A
:1009A0009DF80300000200B29DF8021040EA010425
:1009B00000EE104AB8EEC00A2A48D0ED000A20EE38
:1009C000200A85ED000A9DF80500000200B29DF89E
:1009D000041040EA010400EE104AB8EEC00A2148B3
:1009E000D0ED000A20EE200A85ED010A9DF80700EF
:1009F000000200B29DF8061040EA010400EE104A21
:100A0000B8EEC00A1748D0ED000A20EE200A85EDA6
:100A1000020AFFF7A7FEA22000F046F8022269466C
:100A2000222000F021F8FFF793FE9DF80000C0009F
:100A30009DF8011040EA6114B4F5806F02DBA4F563
:100A4000006004B200EE104AF8EEC00AB4EE001ADC
:100A5000B3EE070A00EE810A87ED000ABDE8FC81CB
:100A6000880000208C00002070B506460C46154614
:100A700046F0800000F018F806E0552000F014F869
:100A80002070641C681EC5B2002DF6D170BD70B513
:100A900004460D4644F0800000F006F8552000F0B2
:100AA00003F8287070BD000001B582B04FF47A7071
:100AB000012301AA02A90090024802F091F89DF8D2
:100AC00004000EBD3808002010B502461378DB0084
:100AD000547843EA6410B0F5806F02DBA0F5006340
:100AE00018B200EE100AF8EEC00AB4EE001AB3EE27
:100AF000070A00EE810A81ED000A10BD70B50546B7
:100B00000C462846FFF7D0FF2046FFF7CDFF70BD0B
:100B100000BFFEE710B5024800F0DEFC10BD00008B
:100B20006C0A002010B5FE48C06C0068FD49884280
:100B300076D9FC4854380068F949C96C0968FA4A02
:100B4000914201D1202169E0F549C96C0968F54A53
:100B5000483A914201D1202160E0F149C96C09680D
:100B6000F14A6032914201D1202157E0EC49C96C31
:100B70000968EC4A1832914201D120214EE0E8493F
:100B8000C96C0968E84A1832914201D1C91445E09C
:100B9000E349C96C0968E34A303A914201D1C9146A
:100BA0003CE0DF49C96C0968DF4A7832914201D1E3
:100BB000C91433E0DA49C96C0968DA4A3032914223
:100BC00001D1C9142AE0D649C96C0968D64A303225
:100BD000914202D14FF4001120E0D149C96C09685B
:100BE000D04A183A914202D14FF4001116E0CC4994
:100BF000C96C0968CC4A9032914202D14FF400117D
:100C00000CE0C749C96C0968C64A4832914203D111
:100C10004FF4001102E003E04FF00061084070E182
:100C2000BF48C06C0068C049A831884276D9BD4829
:100C300058380068BA49C96C0968BB4A914201D169
:100C4000202169E0B649C96C0968B64A483A914220
:100C500001D1202160E0B249C96C0968B24A603212
:100C6000914201D1202157E0AD49C96C0968AD4AD4
:100C70001832914201D120214EE0A949C96C09687E
:100C8000A94A1832914201D1C91445E0A449C96C5E
:100C90000968A44A303A914201D1C9143CE0A04904
:100CA000C96C0968A04A7832914201D1C91433E075
:100CB0009B49C96C09689B4A3032914201D1C914E1
:100CC0002AE09749C96C0968974A3032914202D1AB
:100CD0004FF4001120E09249C96C0968914A183A12
:100CE000914202D14FF4001116E08D49C96C096898
:100CF0008D4A9032914202D14FF400110CE08849A4
:100D0000C96C0968874A4832914203D14FF40011F7
:100D100002E003E04FF000610840F2E08048C06C60
:100D2000006881494831884276D97F481038406848
:100D30007B49C96C09687C4A914201D1202169E054
:100D40007749C96C0968774A483A914201D1202114
:100D500060E07349C96C0968734A6032914201D1FD
:100D6000202157E06E49C96C09686E4A18329142D9
:100D700001D120214EE06A49C96C09686A4A1832DB
:100D8000914201D1C91445E06549C96C0968654AB9
:100D9000303A914201D1C9143CE06149C96C0968FB
:100DA000614A7832914201D1C91433E05C49C96C7F
:100DB00009685C4A3032914201D1C9142AE058498D
:100DC000C96C0968584A3032914202D14FF400117F
:100DD00020E05349C96C0968524A183A914202D13D
:100DE0004FF4001116E04E49C96C09684E4A903222
:100DF000914202D14FF400110CE04949C96C0968D5
:100E0000484A4832914203D14FF4001102E003E016
:100E10004FF00061084074E04348103800684049D2
:100E2000C96C0968404A914201D1202168E03C49DF
:100E3000C96C09683B4A483A914201D120215FE0E0
:100E40003749C96C0968384A6032914201D1202182
:100E500056E03349C96C0968324A1832914201D1CF
:100E600020214DE02E49C96C09682F4A1832914261
:100E700001D1C91444E02A49C96C0968294A303AA9
:100E8000914201D1C9143BE02549C96C0968264A41
:100E90007832914201D1C91432E02149C96C096804
:100EA000204A3032914201D1C91429E01C49C96C51
:100EB00009681D4A3032914202D14FF400111FE0FF
:100EC0001749C96C0968174A183A914202D14FF480
:100ED000001115E01249C96C0968134A9032914219
:100EE00002D14FF400110BE00D49C96C09680D4A9D
:100EF0004832914202D14FF4001101E04FF00061FD
:100F0000084000286FD00648C06C00680549884238
:100F10007BD90348C06C00680349884208D105E0CA
:100F2000380800205864024010600240202068E029
:100F3000FE48C06C0068FE49884201D1202060E074
:100F4000FA48C06C0068FB49884201D1202058E073
:100F5000F648C06C0068F6496031884201D1202013
:100F60004FE0F248C06C0068F2494839884201D12C
:100F7000C01446E0ED48C06C0068ED491831884265
:100F800001D1C0143DE0E948C06C0068E94918315E
:100F9000884201D1C01434E0E448C06C0068E449E0
:100FA0007831884201D1C0142BE0E048C06C006861
:100FB000E0493039884202D14FF4001021E0DB488B
:100FC000C06C0068DA493031884202D14FF4001019
:100FD00017E0D648C06C0068D6493031884204D149
:100FE0004FF400100DE0DFE10FE0D048C06C006866
:100FF000CF499031884202D14FF4001001E04FF008
:101000000060CB49091F08606AE1C848C06C0068ED
:10101000C8494831884274D9C448C06C0068C54981
:101020006039884201D1202066E0C048C06C006869
:10103000BF49884201D120205EE0BC48C06C0068F6
:10104000BC49884201D1202056E0B848C06C0068F5
:10105000B7496031884201D120204DE0B348C06CCF
:101060000068B4494839884201D1C01444E0AF480F
:10107000C06C0068AE491831884201D1C0143BE011
:10108000AA48C06C0068AB491831884201D1C0142D
:1010900032E0A648C06C0068A5497831884201D189
:1010A000C01429E0A148C06C0068A24930398842C8
:1010B00002D14FF400101FE09C48C06C00689C49AE
:1010C0003031884202D14FF4001015E09748C06CCF
:1010D000006898493031884202D14FF400100BE08B
:1010E0009248C06C006892499031884202D14FF416
:1010F000001001E04FF000608D4908390860EFE012
:10110000FFE78A48C06C00688A491839884274D958
:101110008648C06C006887496039884201D1202028
:1011200066E08248C06C00688149884201D1202075
:101130005EE07E48C06C00687E49884201D1202074
:1011400056E07A48C06C006879496031884201D124
:1011500020204DE07548C06C0068764948398842C7
:1011600001D1C01444E07148C06C00687049183166
:10117000884201D1C0143BE06C48C06C00686D49E6
:101180001831884201D1C01432E06848C06C006850
:1011900067497831884201D1C01429E06348C06CA6
:1011A000006864493039884202D14FF400101FE0D2
:1011B0005E48C06C00685E493031884202D14FF40D
:1011C000001015E05948C06C00685A493031884217
:1011D00002D14FF400100BE05448C06C0068544931
:1011E0009031884202D14FF4001001E04FF00060CE
:1011F00050497039C86073E0FFE74C48C06C006824
:101200004C496039884201D1202066E04748C06CD3
:1012100000684749884201D120205EE04348C06C05
:1012200000684449884201D1202056E03F48C06C04
:1012300000683F496031884201D120204DE03B48A1
:10124000C06C00683B494839884201D1C01444E071
:101250003648C06C006836491831884201D1C01444
:101260003BE03248C06C006832491831884201D1F5
:10127000C01432E02D48C06C00682D497831884296
:1012800001D1C01429E02948C06C006829493039CF
:10129000884202D14FF400101FE02448C06C00685F
:1012A00023493031884202D14FF4001015E01F4825
:1012B000C06C00681F493031884202D14FF40010E1
:1012C0000BE01A48C06C006819499031884202D17D
:1012D0004FF4001001E04FF000601649703988604B
:1012E0001548007800F0020078B11348007820F02B
:1012F0000200114908700846007840F004000870A8
:10130000012211460D4800F0DFFB0D48007800F087
:101310000200E0B10A48007820F002000849087095
:101320000846007840F0040008700BE03808002000
:101330001064024070600240490000200004024036
:101340004A00002001221021184800F0BDFB184877
:10135000007800F0020078B11548007820F0020013
:10136000134908700846007840F004000870012214
:1013700010210E4800F0A8FB07F090FD0D48007802
:1013800000F0040080B10B48007820F00400094907
:1013900008700846007840F00800087006480068A9
:1013A00040F001000449086010BD00000000024048
:1013B0004B00002049000020103C014001680A4B0E
:1013C000CAB2103AA3FB02321209084B9B5CC365F8
:1013D000032A04D96FF30901091D816502E06FF347
:1013E00009018165806D7047ABAAAAAA0AB80008F6
:1013F000014600208A6A8B69002B0FD0B3F5005F8D
:101400001DD08AB3012A30D0022A2ED0032A04D15B
:10141000C96A11F0807F00D0012070471AB1012AFB
:1014200007D0022AF9D1C96A11F0807FF5D00120D6
:101430007047C96AB1F1C07FFAD1012070475AB133
:10144000012A0BD0022A07D0032AF7D1C96AB1F1C9
:10145000C07FF3D10120704701207047C96A11F0A5
:10146000807FFAD001207047FFE701207047704766
:1014700008F046FE06F0A6FB08F054F807F0DCFB87
:1014800007F068F800BF084890F8340030B9064803
:101490000079012804D106F047FF01E008F058F870
:1014A0000A2008F067F8EEE7D00B002010B5012005
:1014B00000F0E8F910BD10B5082000F0E3F910BD08
:1014C00010B5102000F0DEF910BD10B5202000F09E
:1014D000D9F910BD704700002DE9F84304464FF0DC
:1014E0000008CDF8008076484FF416510068B0FB34
:1014F000F1F7A56D2E6894F85C00082101FA00F060
:10150000304211D02068026812F0040F0CD002683B
:1015100022F00402026094F85C0001FA00F0A86076
:10152000606D40F00100606594F85C004FF00109C7
:1015300009FA00F0304209D02168496911F0800FA2
:1015400004D0A860606D40F00200606594F85C1003
:1015500004208840304209D02168096811F0020F48
:1015600004D0A860606D40F00400606594F85C10E1
:1015700010208840304224D02168096811F0080FFB
:101580001FD0A8602068016811F4802F0DD000687A
:1015900010F4002F04D0A16C99B12046884710E0C8
:1015A000216C71B1204688470BE0016811F4807FFF
:1015B00003D1016821F008010160216C09B12046C6
:1015C000884794F85C1020208840304251D0216830
:1015D000096811F0100F4CD0A86094F83500052868
:1015E0000DD02068016811F4802F32D0006810F40B
:1015F000002F29D0E16B59B32046884739E0206895
:10160000016821F0160101602068416921F0800124
:101610004161206C08B9A06C20B12068016821F0FC
:101620000801016094F85C003F2101FA00F0A86015
:1016300084F8359084F83480216D00293ED001B0C3
:101640002046BDE8F0430847616C09B12046884751
:101650000FE0016811F4807F07D1016821F01001CB
:10166000016084F8359084F83480E16B09B120463C
:101670008847606D002821D0606D10F0010F15D0F3
:10168000052084F835002068016821F0010101601F
:101690000098401C0090B84204D82068006810F000
:1016A000010FF5D184F8359084F83480E16C00297D
:1016B00004D001B02046BDE8F0430847BDE8F883F8
:1016C000100000202DE9F041044600F005FA05461F
:1016D000DCB1022084F83500002684F834602068EC
:1016E000016821F0010101602068006810F0010F1D
:1016F00013D000F0F1F9401B052809D920206065BE
:10170000032084F83500BDE8F0810120BDE8F081B8
:101710002068006810F0010FEBD121680868234AA7
:101720001040A3686268D4F810C01A43E36843EA23
:101730000C031A4363691A43A3691A43E3691A4302
:10174000236A1A431043626A042A03D1236BE26AB4
:101750001A43104308602068406920F00701606A5E
:1017600040EA0105012704280ED1A06A0543E06A7A
:1017700050B12046FFF73CFE30B14020606584F850
:1017800035700120BDE8F081206845612046FFF7F3
:1017900015FE94F85C103F2202FA01F18160666543
:1017A00084F835700020BDE8F08100003F8010F023
:1017B00010B50446102C12D12948007840F00100E1
:1017C000274908702748007840F001002549087033
:1017D00025480078002841D007F060FB3EE0202C2F
:1017E0000BD12248007840F00100204908701E48C3
:1017F000007898B307F052FB30E0082C19D11C4850
:10180000007840F001001A4908700846007800F09E
:101810000100087010B30846007820F0010008703D
:101820000846007840F002000870124807F022FDD8
:1018300014E0012C12D109F0E5FB01280ED00E496D
:101840000E48006808F0FCFE0B48006830B1200725
:101850000B490860BFF34F8FBFF36F8F10BD0000BF
:101860004A0000204B0000204D00002049000020CD
:101870004C000020000B002050000020240000201D
:1018800004ED00E010B504490A68024202D0086085
:10189000FFF78EFF10BD0000143C01402DE9F84F0A
:1018A0000022DFF818A2DFF810924FF0010E032794
:1018B0004FF00F08AAF1040B0EFA02FC0B6803EAC2
:1018C0000C0363457DD10C7904F00304012C01D095
:1018D000022C14D18568540007FA04F6B543CE688B
:1018E00006FA04F42C438460446824EA0C0C0C7956
:1018F000C4F30014944044EA0C0CC0F804C0D1F8BE
:1019000004C037EA0C0C0CD0C4684FEA420C07FA4A
:101910000CF5AC438D6805FA0CFC4CEA040CC0F8DD
:101920000CC091F804C00CF0030CBCF1020F12D1F2
:101930004FEAD20C00EB8C04256A4FEA427C4FEA56
:10194000DC6C08FA0CF6B5430E6906FA0CFC4CEA9E
:10195000050CC4F820C004684FEA420C07FA0CF5E5
:10196000AC430D7905F0030505FA0CFC4CEA040CB8
:10197000C0F800C0D1F804C01CF4403F7DD0D9F8B5
:1019800000C04CF4804CC9F800C0D9F800C00CF479
:10199000804CCDF800C022F0030C0CF1804505F519
:1019A0009835D5F808C89407240F08FA04F62CEAED
:1019B0000606A0F1804CBCF5003C64D0A0F1804C40
:1019C00000E05AE0BCF5013C60D0A0F1804CBCF5D1
:1019D000023C5ED0A0F1804CBCF5033C5CD0A0F191
:1019E000804CBCF5043C5AD0A0F1804CBCF5053CC1
:1019F00058D0A0F1804CBCF5063C56D0A0F1804CEC
:101A0000BCF5073C54D04FF0080C0CFA04FC4CEA2F
:101A1000060CC5F808C8DAF800C02CEA030C4C68BC
:101A200014F4801F01D04CEA030CCAF800C0244C07
:101A3000D4F800C02CEA030C4D6815F4001F01D047
:101A40004CEA030CC4F800C0DBF800C02CEA030C1D
:101A50004C6814F4003F01D04CEA030CCBF800C0F2
:101A6000184CD4F800C02CEA030C4D6815F4803FE4
:101A700001D04CEA030CC4F800C0521C102AFFF439
:101A80001BAFBDE8F88F4FF0000CBEE74FF0010C24
:101A9000BBE74FF0020CB8E74FF0030CB5E74FF08F
:101AA000040CB2E74FF0050CAFE74FF0060CACE7C3
:101AB0004FF0070CA9E7000044380240083C014001
:101AC0000C3C0140003C0140002A01D0816170477C
:101AD0000904816170470000014880687047000078
:101AE000B400002070B50446002C04D094F83D00EA
:101AF000002510B106E0012070BD84F83C5020465E
:101B000000F0E0FA242084F83D002068016821F00C
:101B1000010101602068016841F400410160206812
:101B2000016821F40041016000F0B6FC544B61688B
:101B3000994203D85349884203D304E0524988426A
:101B400001D2012070BD5149B0FBF1F12268D2F8F9
:101B500004C02CF03F0C4CEA010CC2F804C06268CF
:101B60009A4201D84A1C07E04FF4967251434FF451
:101B70007A72B1FBF2F14A1C2168D1F820C02CF036
:101B80003F0C42EA0C020A626168994210D849008F
:101B9000401EB0FBF1F2521CC2F30B02042A01D228
:101BA000042026E0B0FBF1F0401CC0F30B0020E065
:101BB000A268002A50D001EBC10303EB0113A0F18E
:101BC000010CBCFBF3F35B1C43F480431B051B0DB2
:101BD0004AD0002A4AD001EBC10202EB0111401E9B
:101BE000B0FBF1F0401CC0F30B0040F4804040F427
:101BF00000402168CA6922F0FF0222F44F421043DC
:101C0000C861216AE06901432068026822F0C002CD
:101C100011430160E168206901432068826822F075
:101C2000FF0222F4034211438160A169606901430C
:101C30002068C26822F0FF021143C1602068016879
:101C400041F0010101602564202084F83D002563F6
:101C500084F83E50002070BD01EB4103A0F1010C5F
:101C6000BCFBF3F35B1CB1E70120C2E701EB4101D0
:101C7000401EB0FBF1F0401CC0F30B00B7E70000C2
:101C8000A086010080841E0000093D0040420F0034
:101C90002DE9FF4F83B004468A469346DDF8449011
:101CA000DDF84080129EFFF717FF054694F83D00CF
:101CB000202803D007B00220BDE8F08F19230122AD
:101CC000A0492046009501F0EBFD18B107B00220B5
:101CD000BDE8F08F94F83C00012808D0012084F87A
:101CE0003C002068016811F0010F04D007E007B044
:101CF0000220BDE8F08F016841F001010160206819
:101D0000016821F400610160222084F83D00402038
:101D100084F83E0000272764C4F82480A4F82A90A1
:101D2000608D20858848E062019500965A465146AC
:101D30002046069B01F074FC18B107B00120BDE8F5
:101D4000F08F208D10B3012829D0022835D02068CB
:101D5000416980690290208D002800F0E880DFF85A
:101D6000EC81208D032800F2B780012834D00228AE
:101D70004AD03346002241462046009501F090FDAE
:101D800000286CD007B00120BDE8F08F20684169C1
:101D900081690291016841F400710160DBE720680C
:101DA000016821F4806101602068416981690291C4
:101DB000016841F400710160CDE72068016821F4F9
:101DC000806101602068016841F400610160206861
:101DD000416980690290BEE72A463146204601F0FB
:101DE00020FE18B107B00120BDE8F08F206800691F
:101DF000616A0870606A401C6062208D401E208508
:101E0000608D401E60858EE03346002241462046AC
:101E1000009501F045FD18B107B00120BDE8F08F35
:101E20002068016841F40071016020680069616AFE
:101E30000870606A401C6062218D491E2185618D99
:101E4000491E6185216809690170606A401C6062F1
:101E5000208D401E2085608D401E608563E02068D7
:101E6000016821F48061016020680069616A08707E
:101E7000606A401C6062208D401E2085608D401E7F
:101E800060853346002241462046009501F008FD5A
:101E900018B107B00120BDE8F08F2068016841F457
:101EA0000071016020680069616A0870606A401C06
:101EB0006062218D491E2185618D491E61852168E1
:101EC00009690170606A401C6062208D401E208597
:101ED000608D401E608526E02A463146204601F08E
:101EE000A0FD18B107B00120BDE8F08F206800699F
:101EF000616A0870606A401C6062218D491E2185FC
:101F0000618D491E61852268516911F0040F0AD064
:101F100011690170606A401C6062208D401E20853E
:101F2000608D401E6085208D00287FF41AAF202030
:101F300084F83D0084F83E7084F83C7007B00020BF
:101F4000BDE8F08F020010000000FFFF0400010058
:101F50002DE9FF4F83B004468A469346DDF844904E
:101F6000DDF84080129EFFF7B7FD054694F83D006E
:101F7000202803D007B00220BDE8F08F19230122EA
:101F80004E492046009501F08BFC18B107B00220A5
:101F9000BDE8F08F94F83C00012808D0012084F8B7
:101FA0003C002068016811F0010F04D007E007B081
:101FB0000220BDE8F08F016841F001010160206856
:101FC000016821F400610160212084F83D00402077
:101FD00084F83E0000272764C4F82480A4F82A90DF
:101FE000608D20853648E062019500965A4651463C
:101FF0002046069B01F0BEFB18B107B00120BDE8EA
:10200000F08F208D002836D02A463146204601F038
:1020100046FD58B1206C042804D12068016841F4C1
:102020000071016007B00120BDE8F08F606A21688F
:1020300000780861606A00F1010CC4F824C0208DAA
:10204000401E80B22085618D491E618523685969D3
:1020500011F0040F0CD058B19CF800001861606AB0
:10206000401C6062208D401E2085608D401E608572
:10207000208D0028C8D12A463146204601F0E2FBD7
:1020800058B1206C042804D12068016841F4007123
:10209000016007B00120BDE8F08F2068016841F4BD
:1020A00000710160202084F83D0084F83E7084F8BF
:1020B0003C7007B00020BDE8F08F00000200100067
:1020C0000000FFFF10B586B00446142101A8FEF7FA
:1020D00060FA2A49206888424DD100BF0020009054
:1020E0002748006840F00400254908600846006859
:1020F00000F00400009000BF00BF00BF002000906F
:102100000846006840F0010008600846006800F0DA
:102110000100009000BF00BF4815019012200290FE
:1021200001200390032004900420059001A9154884
:10213000FFF7B4FB4FF48070019012200290012051
:102140000390032004900420059001A90E48FFF796
:10215000A5FB00BF0020009009481030006840F443
:1021600000000749103108600846006800F40000CC
:10217000009000BF00BF06B010BD0000005C004032
:1021800030380240000802400000024002488168E6
:102190000278114481607047B400002010B50B48EC
:1021A000016841F400710160016841F480610160DF
:1021B000016841F480710160032000F097F80F205E
:1021C00000F006F800F026F8002010BD003C0240A8
:1021D00070B504460D4D4FF47A712878B1FBF0F0DC
:1021E0000B490968B1FBF0F000F0F6FD08B10120E1
:1021F00070BD102C07D200222146501E00F042F87C
:102200006C60002070BD012070BD0000B400002093
:102210001000002008B500BF0020009011480068A1
:1022200040F480400F4908600846006800F4804090
:10223000009000BF00BF00BF00200090081F006892
:1022400040F08050091F08600846006800F0805088
:10225000009000BF00BF00220F21901E00F012F876
:1022600008BD00004438024000280ADB00F01F01CE
:10227000012202FA01F14009800000F1E020C0F8DB
:102280000011704710B4184B1B68C3F30223C3F14D
:10229000070CBCF1040F01D94FF0040C1C1D072CD6
:1022A00001D2002300E0DB1E012404FA0CFCACF197
:1022B000010C0CEA0101994004FA03F35B1E1A4079
:1022C0001143002806DB00F1E020090180F800142A
:1022D00010BC704700F00F0000F1E020090180F809
:1022E000141D10BC704700000CED00E000F007006A
:1022F000064A11684FF6FF03194041EA002040F0FA
:10230000FD7040F080601060704700000CED00E050
:102310002DE9F04704460D46002C13D0DFF8549108
:10232000D9F80000EFB200F00700A8420DD289F8FA
:102330000070D9F8000000F00700A84205D0012085
:10234000BDE8F0870120BDE8F08720684A4E10F014
:10235000020F14D010F0040F03D0306840F4E050A6
:102360003060207810F0080F03D0306840F46040EF
:1023700030603068A16820F0F000084330602078B9
:1023800010F0010F3ED060683C49012808D00228B7
:102390000DD003280BD0096811F0020F28D00AE0F5
:1023A000096811F4003F06D10120BDE8F0870968F3
:1023B00011F0007F19D0316821F00301084330602B
:1023C000FFF78AFB80463068616800F00C00B0EBD4
:1023D000810F17D041F2883AFFF77EFBA0EB08008F
:1023E000504508D90320BDE8F0870120BDE8F087FB
:1023F0000120BDE8F0873068616800F00C00B0EBA8
:10240000810FE9D1D9F8000000F00700A8420AD9ED
:1024100089F80070D9F8000000F00700A84202D047
:102420000120BDE8F087207810F0040F05D0306857
:10243000E16820F4E05008433060207810F0080F85
:1024400006D03068216920F4604040EAC100306065
:1024500000F042F831680A4AC1F30311515CC840E8
:102460000849086008480068FFF7B2FE0020BDE890
:10247000F0870000003C024008380240003802406B
:10248000C8B7000810000020B8000020014800680C
:10249000704700001000002000B5FFF7F7FF044967
:1024A0000968044AC1F38221515CC84000BD0000A4
:1024B00008380240D8B7000800B5FFF7E7FF044925
:1024C0000968044AC1F34231515CC84000BD0000B4
:1024D00008380240D8B7000810B51748006810F057
:1024E0000C01164816D0164B042912D0082911D118
:1024F000144C216801F03F02216811F4800F0AD0CA
:102500002068C0F38810A0FB03010023FDF72CFF17
:1025100009E0184610BD21680023C1F38811A1FB12
:102520000001FDF721FF2168C1F30141491C490069
:10253000B0FBF1F010BD0000083802400024F400A8
:10254000001BB700043802402DE9F84F0446002C68
:1025500012D02078FB4E10F0010FA6F1040563D0D5
:10256000301D016801F00C0104290CD0006800F056
:102570000C00082803D010E00120BDE8F88F306877
:1025800010F4800F09D0286810F4003F4CD0606828
:10259000002849D10120BDE8F88F6068B0F5803F80
:1025A00014D0B0F5A02F16D0286820F48030286011
:1025B000286820F480202860606810B3FFF78CFA48
:1025C0000746286810F4003F0ED02DE0286840F43C
:1025D00080302860F0E7286840F480202860286870
:1025E00040F480302860E7E7FFF776FAC01B6428E4
:1025F00002D90320BDE8F88F286810F4003FF3D01B
:1026000012E0FFF769FA0746286810F4003F0BD084
:10261000FFF762FAC01B642802D90320BDE8F88FD7
:10262000286810F4003FF3D12078C74F10F0020F54
:102630004FF0000957D0C548016811F00C0F14D0B5
:10264000006800F00C00082803D1306810F4800FF7
:102650000BD0E06880B301203860FFF73DFA804678
:10266000286810F0020F12D01EE0286810F0020F48
:1026700005D0E068012802D00120BDE8F88F286865
:10268000216920F0F80040EAC10028602BE0FFF744
:1026900023FAA0EB0800022802D90320BDE8F88F36
:1026A000286810F0020FF2D02868216920F0F800A5
:1026B00040EAC100286016E0FFE7C7F80090FFF786
:1026C0000BFA8046286810F0020F0CD0FFF704FACE
:1026D000A0EB0800022802D90320BDE8F88F286883
:1026E00010F0020FF2D1207810F0080F35D0984882
:1026F000DFF860A26169C1B101210160FFF7ECF967
:102700008046DAF8000010F0020F26D1FFF7E4F956
:10271000A0EB0800022802D90320BDE8F88FDAF800
:10272000000010F0020FF1D017E0C0F80090FFF7A2
:10273000D3F98046DAF8000010F0020F0DD0FFF751
:10274000CBF9A0EB0800022802D90320BDE8F88FDE
:10275000DAF8000010F0020FF1D1207810F0040F29
:1027600071D04FF000087C48006810F0805F0AD1FB
:102770007948016841F080510160006800F08050A4
:1027800000904FF00108DFF8D4B1DBF8000010F43E
:10279000807F1BD1DBF8000040F48070CBF8000094
:1027A000FFF79AF98246DBF8000010F4807F0DD124
:1027B000FFF792F9A0EB0A00022802D90320BDE836
:1027C000F88FDBF8000010F4807FF1D0A068DFF80C
:1027D00090B1012818D005281DD0DBF8000020F0AA
:1027E0000100CBF80000DBF8000020F00400CBF87B
:1027F0000000A06840B3FFF76FF98246DBF80000E5
:1028000010F0020F14D03EE0DBF8000040F00100B1
:10281000CBF80000EDE7DBF8000040F00400CBF857
:102820000000DBF8000040F00100CBF80000E0E71A
:10283000FFF752F9A0EB0A0141F28830814204D936
:102840000320BDE8F88F26E005E0DBF8000010F07B
:10285000020FEDD017E0FFF73FF98246DBF80000EA
:1028600010F0020F0FD0FFF737F9A0EB0A0141F289
:102870008830814202D90320BDE8F88FDBF80000E0
:1028800010F0020FEFD1B8F1010F04D13248016806
:1028900021F080510160A069F0B32C4909684FF024
:1028A000FF3801F00C01082966D0022810D0C7F8C3
:1028B0006090FFF711F90446286810F0007F2BD0D4
:1028C000FFF70AF9001B022851D90320BDE8F88F51
:1028D000C7F86090FFF700F98146286810F0007F84
:1028E0000CD0FFF7F9F8A0EB0900022802D9032069
:1028F000BDE8F88F286810F0007FF2D1216AE06906
:10290000A26A0843616A08EB5202890141EA024166
:10291000084394F82C1000E055E040EA0160306074
:1029200001203866FFF7D8F80446286810F0007FC9
:1029300049D1FFF7D1F8001B022813D90320BDE8C5
:10294000F88F000004380240000047420838024077
:10295000800E474274380240403802400070004008
:1029600070380240286810F0007FE2D02BE0286821
:1029700010F0007FA4D126E0012822D03068E2695F
:1029800000F4800191421AD1226A00F03F01914285
:1029900015D147F6C071626A0140B1EB821F0ED1BA
:1029A000A26A00F4403108EB5202B1EB024F06D1AB
:1029B00094F82C1000F07060B0EB016F03D0012090
:1029C000BDE70120BBE70020B9E770B50446002C45
:1029D00009D0606A002540B125616561A56294F85F
:1029E000510040B10CE0012070BD6068B0F5827FFD
:1029F000F4D0E561F2E784F85050204600F044F846
:102A0000022084F851002068016821F04001016033
:102A1000A088218900F4827001F404410843A1894F
:102A200001F400610843217C01F002010843217D8B
:102A300001F001010843218B01F400710843217F5B
:102A400001F03801084394F8201001F08001084398
:102A5000218D01F40051084321680860A169042018
:102A600000EA114094F8241001F01001014320689D
:102A700041602068C16921F40061C1616565012080
:102A800084F85100002070BD10B586B004461421B2
:102A900001A8FDF77EFD4B49206888427ED100BF2A
:102AA000002000904848006840F480504649086083
:102AB0000846006800F48050009000BF00BF00BFCF
:102AC0000020009040481438006840F002003E4961
:102AD000143908600846006800F00200009000BF4A
:102AE00000BF00BF002000900846006840F00100D1
:102AF00008600846006800F00100009000BF00BFB9
:102B000018200190022002900120039003200490DD
:102B10000520059001A92D48FEF7C0FE80200190F8
:102B200002200290012003900320049005200590CC
:102B300001A92748FEF7B2FE2648274908604FF052
:102B4000C0604860002124488160C1604FF480610A
:102B50000161002141618161C1614FF44031016235
:102B600000214162FEF7AEFD08B1FEF7B3FC00BFE5
:102B70001948E064846300BF16481830174908609C
:102B80004FF0C06048604021144881600021C1605E
:102B90004FF4806101610021416100E010E081613A
:102BA000C1614FF40031016200214162FEF78AFDEC
:102BB00008B1FEF78FFC00BF0848A064846300BF23
:102BC00006B010BD0030014044380240000402400D
:102BD000000002404064024090080020F0080020FD
:102BE0002DE9F84F04460A9E8A4693461F46012562
:102BF0004FF0000894F8500001280ED0012084F80E
:102C00005000FEF769FF814694F851006168012881
:102C10000ED0B1F5827F07D102E00220BDE8F88F27
:102C2000A16809B9042803D04FF0020800F0CBB81E
:102C3000BAF1000F1DD0BBF1000F1AD0380018D028
:102C400094F85100042802D0052084F85100002097
:102C50006065C4F838B0E787A787C4F830A0E78676
:102C6000A786206460642068016811F0400F03D0DB
:102C700006E04FF00108A6E0016841F04001016064
:102C8000E068B0F5006F05D06068002848D0012FDB
:102C900046D07EE0606808B1012F3AD1206B2168F0
:102CA0000088C860206B801C2063E08E401EE08698
:102CB0002FE02068816811F0020F0DD0E18E59B12C
:102CC000012D09D1216B0988C160206B801C206314
:102CD000E08E401EE08600252068816811F0010F1B
:102CE0000BD0E18F49B1C068A16B0880A06B801C3C
:102CF000A063E08F401EE0870125FEF7EDFEA0EB0C
:102D00000900B04205D3B6F1FF3F02D04FF00308EF
:102D100059E0E08E0028CCD1E08F0028C9D13EE0F8
:102D2000206B216800780873206B401C2063E08EC4
:102D3000401EE0862DE02068816811F0020F0DD062
:102D4000E18E59B1012D09D1216B09780173206BF6
:102D5000401C2063E08E401EE086002520688168CC
:102D600011F0010F0BD0E18F49B1C068A16B087061
:102D7000A06B401CA063E08F401EE0870125FEF79A
:102D8000ABFEA0EB0900B04202D3B6F1FF3F11D178
:102D900086B1E08E0028CED1E08F0028CBD14A4604
:102DA0003146204604F050FC38B14FF00108202095
:102DB000606508E04FF0030805E0A06818B92068D6
:102DC000C16880680090012084F85100002084F8D8
:102DD00050004046BDE8F88F401EB0F1807F01D31F
:102DE000012070474FF0E0214861044AF020107044
:102DF00000208861072008610020704723ED00E073
:102E000090F83C20012A2CD0012280F83C20CA688E
:102E10000023D1F808C022F4407242EA0C02D1F833
:102E200004C022F4806242EA0C02D1F800C022F40D
:102E3000006242EA0C02D1F810C022F4805242EA49
:102E40000C02D1F814C022F4005242EA0C02C96903
:102E500022F4804211430268516480F83C30002023
:102E600070470220704730B490F83C20012A44D0CB
:102E7000012480F83C40022280F83D200268D2F80C
:102E800004C093682CF0700C0D6845EA0C0CC2F875
:102E900004C00268A2F1804CBCF5803C20D0B2F1A5
:102EA000804F1DD0A2F1804CBCF5806C18D0A2F1EF
:102EB000804CBCF5006C13D0A2F1804CBCF5406C8A
:102EC0000ED0A2F1804CBCF5823C09D0A2F1804C1E
:102ED000BCF5A03C04D0A2F1804CBCF5C05C04D190
:102EE00023F0800349681943916080F83D40002138
:102EF00080F83C1030BC0020704730BC0220704786
:102F000010B50446002C03D094F83D0010B107E042
:102F1000012010BD002084F83C00204600F01EF87F
:102F2000022084F83D00211D206804F0C1FC01202E
:102F300084F8460084F83E0084F83F0084F840009E
:102F400084F8410084F8420084F8430084F8440087
:102F500084F8450084F83D00002010BD08B5154AEE
:102F6000016891420FD100BF002100911249096808
:102F700041F00801104A11601146096801F008018A
:102F8000009100BF15E00D4A0168914211D100BFC8
:102F9000002100910849091D096841F40031064AE1
:102FA000121D11601146096801F40031009100BF43
:102FB00000BF08BD000C0040403802400044014002
:102FC00090F83D10012901D001207047022180F8BE
:102FD0003D100068A0F18041B1F5803126D0B0F1FC
:102FE000804F23D0A0F18041B1F580611ED0A0F1C7
:102FF0008041B1F5006119D0A0F18041B1F5406187
:1030000014D0A0F18041B1F582310FD0A0F1804100
:10301000B1F5A0310AD0A0F18041B1F5C05105D081
:10302000016841F00101016000207047816801F0F2
:1030300007010629F8D0016841F001010160F3E7BA
:1030400070B50446002594F83C00012818D00126EC
:1030500084F83C60022084F83D002068826822F0F9
:10306000770222F47F4282600868502839D00EDC53
:10307000202854D006DC002851D0102811D14EE071
:10308000022070BD30284AD040280AD13DE0602897
:1030900031D070280DD0B0F5805F03D0B0F5005F5F
:1030A00013D0012584F83D60002084F83C002846B8
:1030B00070BDCB684A688968206804F06EFC20689F
:1030C000816841F077018160ECE7CB684A688968E4
:1030D000206804F062FC2068816841F480418160CE
:1030E000E0E7CA684968206804F046FD502120687E
:1030F00004F05EFCD6E7CA684968206804F04FFD1A
:103100006021206804F054FCCCE7CA684968206854
:1031100004F032FD4021206804F04AFCC2E7226836
:103120000146104604F044FCBCE7000010B586B030
:103130000446142101A8FDF72CFA40492068884272
:103140001ED100BF002000903D48006840F01000F4
:103150003B4908600846006800F01000009000BF7E
:1031600000BF4FF4D4400190022002900020039051
:1031700004900120059001A93248FEF78FFB5AE028
:103180003149206888422DD100BF002000902C4892
:10319000006840F080002A4908600846006800F096
:1031A0008000009000BF00BF4FF4E050019002206B
:1031B00002900120039002200490059001A9234869
:1031C000FEF76CFB2248FFF7FBFE0021204800F0D1
:1031D000FBF804211E4800F0F7F808211C4800F015
:1031E000F3F828E01B492068884224D100BF002062
:1031F00000901348006840F020001149086008461C
:10320000006800F02000009000BF00BF4020019047
:1032100002200290012003900220049003200590D8
:1032200001A90D48FEF73AFB0C48FFF7C9FE002143
:103230000A4800F0C9F806B010BD000000000140C7
:103240003038024000100240000C0040001C0240D8
:10325000980900200044014000140240E0090020C9
:1032600070B504460D46002694F83C0001280FD0A6
:10327000012084F83C006AB1042A1FD0082A32D009
:103280000C2A44D00126002084F83C00304670BD52
:10329000022070BD2946206804F092FB20688169F5
:1032A00041F0080181612068816921F00401816198
:1032B000206881692A6911438161E4E72946206811
:1032C00004F0B6FB2068816941F4006181612068E7
:1032D000816921F480618161206881692A6941EAFC
:1032E00002218161CFE72946206804F0DDFB2068D8
:1032F000C16941F00801C1612068C16921F0040180
:10330000C1612068C1692A691143C161BBE72946CF
:10331000206804F005FC2068C16941F40061C161C6
:103320002068C16921F48061C1612068C1692A698E
:1033300041EA0221C161A6E710B50446002C03D082
:1033400094F83D0010B107E0012010BD002084F882
:103350003C00204600F01EF8022084F83D00211DAC
:10336000206804F0A5FA012084F8460084F83E00A5
:1033700084F83F0084F8400084F8410084F842005B
:1033800084F8430084F8440084F8450084F83D0044
:10339000002010BD08B50A4A016891420FD100BF54
:1033A000002100910749096841F00101054A1160B7
:1033B0001146096801F00101009100BF00BF08BD7E
:1033C000000001404438024010B50446002909D0ED
:1033D00004290AD008290BD094F8410001280AD00A
:1033E000012010BD94F83E00F8E794F83F00F5E79F
:1033F00094F84000F2E70220D9B3042947D0082905
:1034000048D084F841000122206804F0B7FA234A2A
:1034100020682349904201D0884203D1436C43F491
:10342000004343642068904224D0B0F1804F21D003
:10343000A0F18042B2F580621CD0A0F18042B2F5CA
:10344000006217D0A0F18042B2F5406212D08842EB
:1034500010D0A0F18041B1F5A0310BD0A0F1804196
:10346000B1F5C05106D0016841F0010101600020B2
:1034700010BD09E0816801F007010629F7D0016855
:1034800041F001010160F2E784F83E00BBE784F8F7
:103490003F00B8E784F84000B5E7000000000140B5
:1034A0000004014070B50446002C04D094F83D009F
:1034B000002510B106E0012070BD84F83C50204684
:1034C00000F022F8242084F83D002068C16821F42F
:1034D0000051C160204604F08DFB2068016921F491
:1034E000904101612068416921F02A014161206811
:1034F000C16841F40051C1602564202084F83D007A
:1035000084F83E00002070BD10B586B0044614213A
:1035100001A8FDF73EF82F492068884258D100BF26
:10352000002000902C48006840F480202A49086060
:103530000846006800F48020009000BF00BF00BF74
:103540000020009024481038006840F00400224910
:10355000103908600846006800F00400009000BFC1
:1035600000BF4FF4406001900220029000200390C1
:10357000032004900720059001A91848FEF78EF952
:103580001748184908604FF000604860002115484E
:103590008160C1604FF480610161002141618161FE
:1035A000C1614FF40031016200214162FEF78AF8E7
:1035B00008B1FDF78FFF00BF0A48A063846300BF16
:1035C000002205212720FEF75DFE2720FEF74CFE96
:1035D00006B010BD004800404038024000080240DC
:1035E000286002406C0A002000BFFEE701684A69BB
:1035F00012F4806F11D06FF480624A610021016380
:10360000202280F83D2080F83E10026C42F0040237
:10361000026480F83C1001207047002070470000D1
:103620002DE9F84F0446DDF828A00B9D0F46904683
:103630001E462068016841F48061016020680168CD
:1036400041F480710160534600224FF00111204681
:10365000009500F025F94FF4007948B12068006822
:1036600010F4807F01D0C4F840900320BDE8F88FAB
:10367000216807F0FE000861DFF8F4B02B465246DF
:103680005946204600F066F910B10120BDE8F88FD8
:1036900020684169806900902A465146204600F022
:1036A000FEF950B1206C042804D12068016841F46F
:1036B000007101600120BDE8F88F304608F0FF0678
:1036C00001280DD021684FEA182008612A4651468A
:1036D000204600F0E4F970B1206C042803D007E024
:1036E0002068066109E02068016841F4007101600A
:1036F0000120BDE8F88F206806612A465146204621
:1037000000F0CDF950B1206C042804D12068016884
:1037100041F4007101600120BDE8F88F2068016864
:1037200041F480710160534600224FF001112046A0
:10373000009500F0B5F848B12068006810F4807F6B
:1037400001D0C4F840900320BDE8F88F2168F8B29A
:1037500040F0010008612B4652465946204600F0D1
:10376000F9F810B10120BDE8F88F0020BDE8F88F0E
:10377000020001002DE9F8430446DDF82090099F7E
:103780000D46164698462068016841F48071016034
:103790004B4600224FF001112046009700F080F8C0
:1037A00050B12068006810F4807F02D04FF40070A0
:1037B00020640320BDE8F883216805F0FE0008615D
:1037C0003B464A461E49204600F0C4F810B101208D
:1037D000BDE8F88320684169806900903A4649460F
:1037E000204600F05CF950B1206C042804D1206818
:1037F000016841F4007101600120BDE8F883F5B271
:10380000B8F1010F0CD02168300A08613A464946E8
:10381000204600F044F970B1206C042803D007E082
:103820002068056109E02068016841F400710160C9
:103830000120BDE8F883206805610020BDE8F88319
:103840000200010070B504460D4616462068406926
:1038500010F0040F13D12046FFF7C8FE08B1012075
:1038600070BDB5F1FF3F05D0FEF736F9801BA842C9
:1038700007D835B12068406910F0040FEBD0002064
:1038800070BD00202063202184F83D1084F83E00A4
:10389000216C41F02001216484F83C00012070BDBE
:1038A0002DE9F0470446DDF820900D4617461E46E8
:1038B000C5F307482068B8F1010F22D0806925EAD6
:1038C00000000004000C26D00020B84216D1B6F14A
:1038D000FF3F06D0FEF700F9A0EB0900B0421CD86C
:1038E000DEB1B8F1010F28D02068806925EA000018
:1038F0000004000C2CD00020B842E8D00020BDE825
:10390000F087406925EA00000004000C01D0002087
:10391000DBE70120D9E70120D7E700202063202141
:1039200084F83D1084F83E00216C41F020012164B0
:1039300084F83C000120BDE8F0872068406925EA52
:1039400000000004000C01D00020D5E70120D3E7DF
:103950000120D1E72DE9F04704460D4616461F46E3
:10396000C5F307482068B8F1010F26D0806925EA21
:1039700000000004000C3AD04FF000094FF0200A7C
:103980002068406910F4806F1ED02068016841F4FF
:103990000071016021686FF480604861C4F8309064
:1039A00084F83DA084F83E90206C40F00400206430
:1039B00084F83C900120BDE8F087406925EA0000CA
:1039C0000004000C13D0D7E7B6F1FF3F05D0FEF797
:1039D00083F8C01BB0420DD866B1B8F1010F18D002
:1039E0002068806925EA00000004000CC8D100208E
:1039F000BDE8F087C4F8309084F83DA084F83E908C
:103A0000206C40F02000206484F83C900120BDE848
:103A1000F0872068406925EA00000004000CAFD15F
:103A2000E5E72DE9F04104460D4616462068406959
:103A300010F0400F22D100274FF020082068406985
:103A400010F0100F0FD021686FF01000486127634D
:103A500084F83D8084F83E70206C206484F83C70CB
:103A60000120BDE8F081FEF737F8801BA84208D896
:103A70003DB12068406910F0400FDFD00020BDE864
:103A8000F081276384F83D8084F83E70206C40F01C
:103A90002000206484F83C700120BDE8F08170B5FE
:103AA00004460D4616462068406910F0800F13D179
:103AB0002046FFF79BFD08B1012070BDB5F1FF3F27
:103AC00005D0FEF709F8801BA84207D835B1206859
:103AD000406910F0800FEBD0002070BD0020206303
:103AE000202184F83D1084F83E00216C41F0200133
:103AF000216484F83C00012070BD0000072005F01F
:103B000039FD02E0642005F035FDFCF7D5FE002804
:103B1000F8D102E0642005F02DFD05F061FB0028DE
:103B2000F8D1404AA2F10C01101DFCF7DFFEDFEDD9
:103B30003E0A9FED3E0A3E4A00213E4801F0A8F8A9
:103B40003D4A38490C393D48FCF7B8FD002005F0E6
:103B50004DFD044607F010FA394908601021394834
:103B6000C161FEF732FF08B1FDF7B4FC0822364907
:103B7000364803F0A9FC01203549087051E000BF28
:103B80004FF0FF31012006F0B1FB0128F8D1314898
:103B9000007800F0080058B12E48007820F00800A6
:103BA0002C4908701F49091D2748401CFCF750FE8E
:103BB0002948007800F0040060B12748007820F020
:103BC000040025490870174A1032A2F11C0123484D
:103BD000FCF7E8FD2248007800F0040088B1204896
:103BE000007820F004001E4908700E491D48FCF7BB
:103BF0006BFF0C481038D0ED040AB0EE600A05F0F7
:103C000027FA0D4B074A0C3A02F110019FED160AF4
:103C10000A48FCF767FD154B1A1F111F074805F0EE
:103C2000CFF8ACE7E80A00200080894500A08C4569
:103C3000E0B700080C0B0020000B0020540B002004
:103C40002400002038080020280000203000002038
:103C50004D000020490000204A000020CE0A00202C
:103C60004B000020430000206F12833A6C0B0020B1
:103C700008B500BF002000901A48006840F480009A
:103C8000184908600846006800F48000009000BFF2
:103C900000BF00BF002000900846006840F40010FC
:103CA00008600846006800F40010009000BF00BFE4
:103CB000002205210C20FEF7E5FA0C20FEF7D4FACD
:103CC000002205213A20FEF7DDFA3A20FEF7CCFA71
:103CD000002205213B20FEF7D5FA3B20FEF7C4FA6F
:103CE00008BD00003038024000B59DB01C221849C4
:103CF00016A8FCF714FC002116A805F048FC15498D
:103D000008601C2212491C310FA8FCF708FC002196
:103D10000FA805F03CFC104908601C220C49383102
:103D200008A8FCF7FCFB002108A805F030FC0B49B3
:103D300008601C220649543101A8FCF7F0FB002161
:103D400001A805F024FC064908601DB000BD000074
:103D500058B70008080000200C00002000000020D8
:103D60000400002000B587B0142102A8FCF711FC64
:103D700000BF002001906648006840F002006449DE
:103D800008600846006800F00200019000BF00BF14
:103D900000BF002001900846006840F00100086064
:103DA0000846006800F00100019000BF00BF00BF9E
:103DB000002001900846006840F0040008600846B2
:103DC000006800F00400019000BF00BF00BF0020A9
:103DD00001900846006840F08000086008460068CE
:103DE00000F08000019000BF00BF00BF00200190E4
:103DF0000846006840F0400008600846006800F08F
:103E00004000019000BF00BF00BF002001900846A5
:103E1000006840F0200008600846006800F02000BC
:103E2000019000BF00BF00BF00200190084600685D
:103E300040F0100008600846006800F01000019093
:103E400000BF00BF012240213248FDF73DFE0122A4
:103E500010213148FDF738FE012211462F48FDF7A9
:103E600033FE40200290012003900490059002A9A7
:103E70002848FDF713FD092002904FF40410039029
:103E80000120049002A92348FDF708FD10200290AC
:103E90000120039004900220059002A91E48FDF71E
:103EA000FDFC302002904FF4041003900120049098
:103EB00002A91B48FDF7F2FC012002900390049038
:103EC0000220059002A91548FDF7E8FC0022062112
:103ED0000846FEF7D7F90620FEF7C6F900220521AD
:103EE0000920FEF7CFF90920FEF7BEF900220521CF
:103EF0000A20FEF7C7F90A20FEF7B6F900220521CD
:103F00001720FEF7BFF91720FEF7AEF907B000BD86
:103F10003038024000180240000002400004024015
:103F20000008024010B50B480B4908600B48486078
:103F3000002109488160C1604FF480410161002186
:103F400041618161C1610162FDF7CCFD08B1FDF7FE
:103F5000C1FA10BD005C0040E4070020801A060092
:103F600010B50F480F4908604FF482704860002177
:103F70000C488160C1600221016101214161490257
:103F800081613821C16100210162416281620A219F
:103F9000C162FEF71AFD08B1FDF79CFA10BD0000E2
:103FA000003001403808002000B587B01C21684669
:103FB000FCF7EFFA15481649086000204860002118
:103FC0001348816041F28731C16000210161816144
:103FD000FEF796FF08B1FDF77DFA0D48FFF7ACF943
:103FE00008B1FDF777FA6020009000200190029060
:103FF0000490002269460648FFF732F908B1FDF740
:1040000069FA0348FFF792F807B000BD0044014089
:10401000E009002000B591B000200F9010901C2105
:1040200008A8FCF7B6FA20216846FCF7B2FA2F4838
:104030002F490860A720486000212D48816044F680
:104040001F61C1600021016141618161FFF774F965
:1040500008B1FDF73FFA00200F9010900FA92448F7
:10406000FEF701FF08B1FDF735FA60200890002047
:1040700009900A900B900C900D900E90002208A9C8
:104080001B48FFF7EDF808B1FDF724FA042208A950
:104090001748FFF7E5F808B1FDF71CFA082208A950
:1040A0001348FFF7DDF808B1FDF714FA0C2208A950
:1040B0000F48FFF7D5F808B1FDF70CFA0020009083
:1040C00001900290039004904FF40050059000205E
:1040D000079069460648FEF793FE08B1FDF7FAF926
:1040E0000348FFF723F811B000BD000000000140B5
:1040F0005009002000B58DB0002009900A900B9067
:104100000C90079008901C216846FCF742FA28485A
:1041100028490860002048600021264881604FF649
:10412000FF71C160002101618161FEF7E9FE08B104
:10413000FDF7D0F94FF48050099009A91D48FEF70A
:104140007FFF08B1FDF7C6F91A48FFF7F5F808B187
:10415000FDF7C0F900200790089007A91548FEF761
:1041600082FE08B1FDF7B6F96020009000200190B2
:1041700002900490002269460E48FFF771F808B1DA
:10418000FDF7A8F9042269460A48FFF769F808B163
:10419000FDF7A0F9082269460648FFF761F808B163
:1041A000FDF798F90348FEF7C1FF0DB000BD000010
:1041B000000C00409809002010B50A480A49086020
:1041C0000A484860002108488160C16001610C21F3
:1041D000416100218161C161FFF764F908B1FDF718
:1041E00079F910BD00480040280A0020A08601008F
:1041F00010B52DED108B98B00446B0EE40AAF0EE4D
:1042000060AAB0EE41BAF0EE61CAF0EE42BAB0EE8A
:1042100062CAF0EE439AB0EE638AF0EE448AF5EE9D
:10422000C09AF1EE10FA1CD1B5EEC08AF1EE10FA88
:1042300017D1F5EEC08AF1EE10FA12D1F0EE4C2A49
:10424000B0EE6B2AF0EE6C1AB0EE4B1AF0EE6A0A82
:10425000B0EE4A0A204600F0A1FA18B0BDEC108B6F
:1042600010BDF5EEC0CAF1EE10FA09D1F5EEC0BAF4
:10427000F1EE10FA04D1B5EEC0CAF1EE10FA7CD01E
:104280006CEEAC0A4BEEAB0A4CEE0C0AB0EE600AD8
:1042900004F030FFB0EE409A2CEE890AF0EE40CAEE
:1042A0002BEE890AF0EE40BA2CEE090AB0EE40CAB5
:1042B00069EEA90A48EE080A48EEA80AB0EE600ABC
:1042C00004F018FFB0EE409A29EE890AF0EE409A09
:1042D00028EE090AB0EE408A28EE890AF0EE408AFC
:1042E00094ED000A20EE000A8DED170A94ED000A05
:1042F000D4ED010A20EE20EA94ED000AD4ED020A82
:1043000020EE20DA94ED000AD4ED030A20EE200A14
:104310008DED160A94ED010A20EE000A8DED150AC6
:1043200094ED010AD4ED020A20EE200A8DED140A64
:1043300094ED010AD4ED030A60EE20DA94ED020A4E
:1043400060EE00EA94ED020AD4ED030A20EE20FAB2
:1043500094ED030A60EE00FAB6EE000A30EE6E0A43
:1043600030EE6F0A20EE291A9DED140ADDED160AD3
:1043700070EE600AB0EE410A00E060E108EE200A4B
:104380007DEE8D0A08EEA00AF0EE000A20EE200A6B
:104390008DED130A9DED140ADDED160A30EE200AAC
:1043A00060EE290A9DED150AB6EE001A31EE400ABC
:1043B00030EE6F1AB0EE600A08EE010A7FEE4E0A88
:1043C00008EEA00AF0EE000A20EE200A8DED120A97
:1043D0009DED130A60EE000A9DED120A40EE000A00
:1043E00010EE901A084607F03BF9CDE900019DED6B
:1043F000000B03F011FF8DED020B9DED020B51EC54
:10440000100B06F0DBFF11903DEECD0A20EE290ADD
:104410007FEE0E0A08EE200ADDED150AB6EE001A50
:1044200071EE600A70EEEE0A08EEA00AF0EE000AE5
:1044300020EE200A8DED100A3DEECD0A8DED0F0A1B
:104440003EEE0F0A8DED0E0A9DED170AF6EE000AFC
:1044500030EE600A30EE2F0A8DED0D0AB6EE000A3E
:1044600030EE6E0A70EE6F0A9DED110A20EE800AA2
:104470003DEECD1ADDED100A00EE810A8DED0C0A3D
:104480009DED140ADDED160A70EE600A9DED110A2D
:1044900020EE800A3EEE0F1ADDED100A00EE810AD2
:1044A0008DED0B0A7DEE2D0A9DED110A20EE801A8E
:1044B0009DED150AF6EE000A30EEC00A70EE6E1A97
:1044C000DDED100AB0EE410A00EEA10A8DED0A0AF8
:1044D0009DED0D0A6BEE800A9DED0E0A4CEE400A32
:1044E0009DED0A0A28EE001A9DED0B0A08EEC01A8F
:1044F00030EE810A8DED090A9DED0F0A6CEE000A7F
:104500009DED0D0A4CEEC00A9DED0C0A28EE801AB6
:104510009DED0A0A09EEC01A30EE810A8DED080AF7
:104520009DED0E0A6CEE800A9DED0F0A4BEEC00A5F
:104530009DED0B0A29EE801A9DED0C0A08EE401A3B
:1045400030EE810A8DED070A8C4890ED000AB5EE39
:10455000C00AF1EE10FA44DDD0ED000A9DED090A23
:1045600060EE800A864890ED000A9FED861A00EE04
:10457000810A80ED000A8148D0ED000A9DED080A0D
:1045800060EE800A804890ED000A9FED7E1A00EEF2
:10459000810A80ED000A7948D0ED000A9DED070AF6
:1045A00060EE800A794890ED000A9FED761A00EEE1
:1045B000810A80ED000A724890ED000A3AEE000A86
:1045C000B0EE40AA704890ED000A3AEE800AF0EE94
:1045D00040AA6E4890ED000A3BEE000AB0EE40BAE9
:1045E0000EE09FED6B0A664880ED000A9FED680AB9
:1045F000654880ED000A9FED660A644880ED000A78
:10460000644890ED001A9DED090AF0EE4A0A41EE69
:10461000000AB0EE60AA90ED001A9DED080AF0EED7
:104620006A0A41EE000AF0EE60AA90ED001A9DEDD4
:10463000070AF0EE4B0A41EE000AB0EE60BA9FEDB9
:10464000560A2AEE000AB0EE40AA9FED530A2AEE5F
:10465000800AF0EE40AA9FED500A2BEE000AB0EE61
:1046600040BA94ED000A8DED060A94ED010A8DED35
:10467000050A94ED020A8DED040A9DED050AB1EEDE
:10468000400A60EE0A0A9DED040A40EE6A0A94EDC3
:10469000030A40EE4B0A94ED000A30EE800A84EDE6
:1046A000000A9DED060A60EE0A0A9DED040A40EE3E
:1046B0000B0A94ED030A40EE6A0A94ED010A30EE0B
:1046C000800A84ED010A9DED060A60EE2A0A9DED3E
:1046D000050A40EE4B0A94ED030A40EE0A0A94EDF7
:1046E000020A30EE800A84ED020A9DED060A20EEF1
:1046F0000B0ADDED050A00EEAA0ADDED040A00EE64
:10470000CA0AD4ED030A30EE200A84ED030AD4ED80
:10471000000A60EEA00A94ED011AD4ED011A41EEF0
:10472000210A94ED021AD4ED021A41EE210A94ED09
:10473000031AD4ED031A41EE210AB0EE600A04F028
:10474000D9FCB0EE409A94ED000A20EE090A84EDFF
:10475000000A94ED010A20EE090A84ED010A94EDA5
:10476000020A20EE090A84ED020A94ED030A20EE03
:10477000090A84ED030A00BF6FE5000078000020FD
:104780007C0000206F12833A80000020840000200B
:1047900000000000740000206F12033A00B52DEDF8
:1047A000068B0246B0EE403AF0EE603AB0EE414A77
:1047B000F0EE615AF0EE424AB0EE625AF5EEC05A9F
:1047C000F1EE10FA09D1F5EEC04AF1EE10FA04D17B
:1047D000B5EEC05AF1EE10FA7ED065EEA50A44EEB1
:1047E000A40A45EE050AB0EE600A04F083FCF0EE80
:1047F000402A25EEA20AF0EE405A24EEA20AF0EE7C
:10480000404A25EE220AB0EE405A92ED010AD2ED5E
:10481000030A20EE200AD2ED000A92ED021AF0EE11
:10482000408A40EEC18A92ED000AD2ED010A20EEE4
:10483000200AD2ED020A92ED031AF0EE409A40EE01
:10484000819AD2ED000A92ED001AB6EE000A10EE3F
:10485000810AD2ED030A92ED031AB0EE409A00EEFF
:10486000819A24EE890AF0EE407A45EE697A25EEC7
:10487000280AB0EE40AA05EEC9AA25EEA90AB0EEB4
:10488000408A04EEE88A7C4890ED000AB5EEC00A42
:10489000F1EE10FA40DD90ED000A60EE270A77484D
:1048A00090ED000A9FED761A00EE810A80ED000A75
:1048B000714890ED000A60EE0A0A724890ED000A15
:1048C0009FED6F1A00EE810A80ED000A6A4890EDB4
:1048D000000A60EE080A00E046E06B4890ED000A2E
:1048E0009FED671A00EE810A80ED000A634890EDA3
:1048F000000A33EE000AB0EE403A624890ED000A3A
:1049000033EE800AF0EE403A5F4890ED000A34EE54
:10491000000AB0EE404A0EE09FED5C0A574880ED79
:10492000000A9FED5A0A574880ED000A9FED570A8A
:10493000554880ED000A5648D0ED000AB0EE430A13
:1049400000EEA70AB0EE403AD0ED000AB0EE630ADE
:1049500000EE8A0AF0EE403AD0ED000AB0EE440ACA
:1049600000EE880AB0EE404A9FED4A0A23EE000AA4
:10497000B0EE403A9FED470A23EE800AF0EE403A4F
:104980009FED440A24EE000AB0EE404A92ED006A20
:10499000D2ED016A92ED027AB1EE660A20EE030AC8
:1049A00007EE630AD2ED030A00EEC40AD2ED000A54
:1049B00030EE200A82ED000A26EE030A07EE040A12
:1049C000D2ED030A00EEE30AD2ED010A30EE200A2E
:1049D00082ED010A26EE230A06EEC40AD2ED030A8E
:1049E00000EE830AD2ED020A30EE200A82ED020ABE
:1049F00026EE040A06EEA30A07EE430AD2ED030AE6
:104A000030EE200A82ED030AD2ED000A60EEA00A21
:104A100092ED011AD2ED011A41EE210A92ED021A2D
:104A2000D2ED021A41EE210A92ED031AD2ED031AD9
:104A300041EE210AB0EE600A04F05CFBF0EE402A81
:104A400092ED000A20EE220A82ED000A92ED010AA0
:104A500020EE220A82ED010A92ED020A20EE220ADD
:104A600082ED020A92ED030A20EE220A82ED030A89
:104A7000BDEC068B00BD0000780000207C0000200B
:104A80006F12833A800000208400002000000000A4
:104A9000740000206F12033A00BFFEE77047000069
:104AA000B0EE401A10B99FED790A704790ED100AE8
:104AB00080ED110A90ED0F0A80ED100AC0ED060A94
:104AC00080ED071A30EEC10A80ED0F0A0178002947
:104AD00075D190ED010AD0ED0F1A20EE210A80ED7C
:104AE000090A90ED0A0AD0ED021A90ED0F2A01EEA4
:104AF000820A80ED0A0A90ED0D0A80ED0E0A90ED13
:104B00000C0A80ED0D0A90ED0F0AD0ED101A30EE70
:104B1000610A80ED0C0A90ED030AD0ED0C1A20EE2C
:104B2000210A80ED0B0A90ED0A0AD0ED051AB4EEC9
:104B3000E10AF1EE10FA04DD90ED050A80ED0A0AB3
:104B400010E090ED0A0AD0ED051AF1EE611AB4EE0C
:104B5000E10AF1EE10FA05D290ED050AB1EE400A35
:104B600080ED0A0A90ED090AD0ED0A1A30EE210A0A
:104B7000D0ED0B1A30EE210A80ED080A90ED080AFC
:104B8000D0ED041AB4EEE10AF1EE10FA04DD90ED76
:104B9000040A80ED080A76E090ED080AD0ED041AC8
:104BA000F1EE611AB4EEE10AF1EE10FA6BD290ED7B
:104BB000040AB1EE400A80ED080A64E0FFE70178DC
:104BC000012960D190ED0F0AD0ED101A30EE610A84
:104BD000D0ED011A20EE210A80ED090A90ED020ABB
:104BE000D0ED0F1A20EE210A80ED0A0A90ED0D0A91
:104BF00080ED0E0A90ED0C0A80ED0D0A90ED0F0A83
:104C0000D0ED101AB0EE002A02EE610AD0ED111AB2
:104C100030EE210A80ED0C0A90ED030AD0ED0C1A5B
:104C200020EE210A80ED0B0A90ED090AD0ED0A1A58
:104C300030EE210AD0ED0B1A30EE210AD0ED081A21
:104C400030EE210A80ED080A90ED080AD0ED041A32
:104C5000B4EEE10AF1EE10FA04DD90ED040A80ED05
:104C6000080A10E090ED080AD0ED041AF1EE611A7E
:104C7000B4EEE10AF1EE10FA05D290ED040AB1EEBD
:104C8000400A80ED080A90ED080A0EE700000000D7
:104C900000B102B97047017092ED001A80ED011A5F
:104CA00092ED011A80ED021A92ED021A80ED031ABC
:104CB00080ED040AC0ED050A9FED0C1A80ED0E1A76
:104CC00080ED0D1A80ED0C1A9FED081A80ED081A80
:104CD00080ED0B1A80ED0A1A80ED091A80ED111A89
:104CE00080ED101A80ED0F1A00BFD3E7000000001E
:104CF00010B5234B1B685B6943F04003204C2468CC
:104D000063611F4B1B68DB6843F010031C4C246875
:104D1000E3601C4B1B681B6823F00103194C2468DB
:104D2000236007E0174B1B681B6823F00103154C39
:104D300024682360134B1B681B6803F00103002BDE
:104D4000F0D1114B0F4C2468A3600E4B1B68D86048
:104D50000C4B1B6819610B4B1B685A60094B1B6895
:104D60001B6843F48023074C24682360054B1B68B1
:104D70001B6843F00103034C2468236010BD00004E
:104D8000280A00206C0A00200448004010B5FB4BA4
:104D90001B681B6823F00103F84C24682360F84B60
:104DA0001B681B6823F00103F54C2468236007E0AF
:104DB000F24B1B681B6823F00103F04C246823604E
:104DC000EE4B1B681B6803F00103002BF0D107E0DA
:104DD000EB4B1B681B6823F00103E94C246823603C
:104DE000E74B1B681B6803F00103002BF0D1E54B78
:104DF000DB6C1B68E44CA34275D9E24BDB6C1B688F
:104E0000E24CA34201D1202368E0DE4BDB6C1B683F
:104E1000DD4C483CA34201D120235FE0D94BDB6C41
:104E20001B68DA4C6034A34201D1202356E0D54BF5
:104E3000DB6C1B68D44C1834A34201D120234DE015
:104E4000D04BDB6C1B68D14C1834A34201D1DB146E
:104E500044E0CC4BDB6C1B68CB4C303CA34201D113
:104E6000DB143BE0C74BDB6C1B68C84C7834A342B7
:104E700001D1DB1432E0C34BDB6C1B68C24C303415
:104E8000A34201D1DB1429E0BE4BDB6C1B68BF4C95
:104E90003034A34202D14FF400131FE0B94BDB6C56
:104EA0001B68B94C183CA34202D14FF4001315E023
:104EB000B44BDB6C1B68B54C9034A34202D14FF469
:104EC00000130BE0AF4BDB6C1B68AF4C4834A342C4
:104ED00002D14FF4001301E04FF00063AA4C4C3CA8
:104EE000236076E1FFE7A74BDB6C1B68A74CA83477
:104EF000A34275D9A34BDB6C1B68A44CA34201D120
:104F0000202369E09F4BDB6C1B689F4C483CA3420D
:104F100001D1202360E09B4BDB6C1B689B4C603411
:104F2000A34201D1202357E0964BDB6C1B68964CC3
:104F30001834A34201D120234EE0924BDB6C1B6856
:104F4000924C1834A34201D1DB1445E08D4BDB6C4D
:104F50001B688D4C303CA34201D1DB143CE0894BF3
:104F6000DB6C1B68894C7834A34201D1DB1433E03D
:104F7000844BDB6C1B68844C3034A34201D1DB14BE
:104F80002AE0804BDB6C1B68804C3034A34202D19A
:104F90004FF4001320E07B4BDB6C1B687A4C183C11
:104FA000A34202D14FF4001316E0764BDB6C1B6872
:104FB000764C9034A34202D14FF400130CE0714BB5
:104FC000DB6C1B68704C4834A34203D14FF40013D0
:104FD00002E005E04FF000636B4C503C2360F8E0CA
:104FE000684BDB6C1B68694C4834A34275D9654B30
:104FF000DB6C1B68654CA34201D1202368E0614B48
:10500000DB6C1B68604C483CA34201D120235FE06D
:105010005C4BDB6C1B685D4C6034A34201D12023E8
:1050200056E0584BDB6C1B68574C1834A34201D137
:1050300020234DE0534BDB6C1B68544C1834A342C7
:1050400001D1DB1444E04F4BDB6C1B684E4C303C11
:10505000A34201D1DB143BE04A4BDB6C1B684B4C99
:105060007834A34201D1DB1432E0464BDB6C1B6881
:10507000454C3034A34201D1DB1429E0414BDB6CB9
:105080001B68424C3034A34202D14FF400131FE09E
:105090003C4BDB6C1B683C4C183CA34202D14FF4E8
:1050A000001315E0374BDB6C1B68384C9034A3427F
:1050B00002D14FF400130BE0324BDB6C1B68324C17
:1050C0004834A34202D14FF4001301E04FF00063D3
:1050D0002E4C103CE3607CE0FFE72A4BDB6C1B6846
:1050E0002A4CA34201D1202370E0264BDB6C1B68C5
:1050F000254C483CA34201D1202367E0214BDB6CC7
:105100001B68224C6034A34201D120235EE01D4B7A
:10511000DB6C1B681C4C1834A34201D1202355E0E2
:10512000184BDB6C1B68194C1834A34201D1DB14FB
:105130004CE0144BDB6C1B68134C303CA34201D198
:10514000DB1443E00F4BDB6C1B68104C7834A3423C
:1051500001D1DB143AE00B4BDB6C1B680A4C30349A
:10516000A34201D1DB1431E0064BDB6C1B68074C1A
:105170003034A3420CD14FF4001327E090080020F4
:10518000F0080020380800205864024010600240F7
:10519000F74BDB6C1B68F74CA34202D14FF40013B2
:1051A00014E0F34BDB6C1B68F34CA34202D14FF4C9
:1051B00000130BE0EE4BDB6C1B68EE4C6034A3423B
:1051C00002D14FF4001301E04FF00063EA4CA03C21
:1051D000A360E74BDB6C1B68E64C1834A34274D920
:1051E000E34BDB6C1B68E44C903CA34201D11023E1
:1051F00066E0DF4BDB6C1B68DE4C303CA34201D128
:1052000010235DE0DA4BDB6C1B68DB4C303CA342C7
:1052100001D1102354E0D64BDB6C1B68D54C3034E5
:10522000A34201D110234BE0D14BDB6C1B68D24C65
:10523000783CA34201D11B1542E0CD4BDB6C1B68CF
:10524000CC4C183CA34201D11B1539E0C84BDB6C98
:105250001B68C94C183CA34201D11B1530E0C44B5C
:10526000DB6C1B68C34C4834A34201D11B1527E0FB
:10527000BF4BDB6C1B68C04C603CA34202D14FF4B7
:1052800080131DE0BA4BDB6C1B68BA4CA34202D101
:105290004FF4801314E0B64BDB6C1B68B64CA34292
:1052A00002D14FF480130BE0B14BDB6C1B68B14CA7
:1052B0006034A34202D14FF4801301E04FF08063C9
:1052C000AC4C343C236070E1FFE7A94BDB6C1B68FE
:1052D000A94C1834A34274D9A54BDB6C1B68A64CAF
:1052E000903CA34201D1102366E0A14BDB6C1B680C
:1052F000A04C303CA34201D110235DE09C4BDB6C01
:105300001B689D4C303CA34201D1102354E0984BC4
:10531000DB6C1B68974C3034A34201D110234BE067
:10532000934BDB6C1B68944C783CA34201D11B155A
:1053300042E08F4BDB6C1B688E4C183CA34201D1C2
:105340001B1539E08A4BDB6C1B688B4C183CA34265
:1053500001D11B1530E0864BDB6C1B68854C483453
:10536000A34201D11B1527E0814BDB6C1B68824CEB
:10537000603CA34202D14FF480131DE07C4BDB6CF8
:105380001B687C4CA34202D14FF4801314E0784B8D
:10539000DB6C1B68784CA34202D14FF480130BE006
:1053A000734BDB6C1B68734C6034A34202D14FF427
:1053B000801301E04FF080636E4C383C2360F4E0D2
:1053C000FFE76B4BDB6C1B686B4C483CA34274D90A
:1053D000674BDB6C1B68684C903CA34201D11023E7
:1053E00066E0634BDB6C1B68624C303CA34201D12E
:1053F00010235DE05E4BDB6C1B685F4C303CA342CE
:1054000001D1102354E05A4BDB6C1B68594C3034EB
:10541000A34201D110234BE0554BDB6C1B68564C6B
:10542000783CA34201D11B1542E0514BDB6C1B6859
:10543000504C183CA34201D11B1539E04C4BDB6C9E
:105440001B684D4C183CA34201D11B1530E0484B62
:10545000DB6C1B68474C4834A34201D11B1527E085
:10546000434BDB6C1B68444C603CA34202D14FF4BD
:1054700080131DE03E4BDB6C1B683E4CA34202D107
:105480004FF4801314E03A4BDB6C1B683A4CA34298
:1054900002D14FF480130BE0354BDB6C1B68354CAD
:1054A0006034A34202D14FF4801301E04FF08063D7
:1054B000314CA03CE36078E0FFE72D4BDB6C1B68D0
:1054C0002D4C903CA34201D110236BE0284BDB6CA8
:1054D0001B68284C303CA34201D1102362E0244BCE
:1054E000DB6C1B68244C303CA34201D1102359E0F3
:1054F0001F4BDB6C1B681F4C3034A34201D11023BF
:1055000050E01B4BDB6C1B681B4C783CA34201D169
:105510001B1547E0164BDB6C1B68164C183CA3426E
:1055200001D11B153EE0124BDB6C1B68124C183C82
:10553000A34201D11B1535E00D4BDB6C1B680D4CF4
:105540004834A34201D11B152CE0094BDB6C1B68CE
:10555000094C603CA34202D14FF4801322E0044B7B
:10556000DB6C1B68034CA34208D14FF4801319E095
:105570003808002040640240A0600240F74BDB6C1A
:105580001B68F74CA34202D14FF480130AE0F34B9F
:10559000DB6C1B68F34CA34202D14FF4801301E093
:1055A0004FF08063EE4CA03CA360EC4BDB6C1B68BF
:1055B000EC4C483CA34274D9E84BDB6C1B68E84CCC
:1055C000903CA34201D1082366E0E44BDB6C1B68EE
:1055D000E44C903CA34201D108235DE0DF4BDB6C3F
:1055E0001B68DF4C303CA34201D1082354E0DB4B65
:1055F000DB6C1B68DB4C303CA34201D108234BE041
:10560000D64BDB6C1B68D64C783CA34201D15B15B2
:1056100042E0D24BDB6C1B68D24C783CA34201D1F8
:105620005B1539E0CD4BDB6C1B68CD4C183CA342BD
:1056300001D15B1530E0C94BDB6C1B68C94C183CD1
:10564000A34201D15B1527E0C44BDB6C1B68C44C43
:10565000603CA34202D14FF400231DE0BF4BDB6C42
:105660001B68C04C603CA34202D14FF4002313E0FE
:10567000BA4BDB6C1B68BA4CA34202D14FF4002337
:105680000AE0B64BDB6C1B68B64CA34202D14FF468
:10569000002301E04FF00073B24C943C236070E1B2
:1056A000FFE7AE4BDB6C1B68AD4C1834A34274D9DA
:1056B000AA4BDB6C1B68AA4C903CA34201D1082387
:1056C00066E0A64BDB6C1B68A64C903CA34201D164
:1056D00008235DE0A14BDB6C1B68A14C303CA3426E
:1056E00001D1082354E09D4BDB6C1B689D4C303C82
:1056F000A34201D108234BE0984BDB6C1B68984C0C
:10570000783CA34201D15B1542E0944BDB6C1B68F3
:10571000944C783CA34201D15B1539E08F4BDB6C94
:105720001B688F4C183CA34201D15B1530E08B4BBA
:10573000DB6C1B688B4C183CA34201D15B1527E046
:10574000864BDB6C1B68864C603CA34202D14FF455
:1057500000231DE0814BDB6C1B68824C603CA34244
:1057600002D14FF4002313E07C4BDB6C1B687C4CB4
:10577000A34202D14FF400230AE0784BDB6C1B6894
:10578000784CA34202D14FF4002301E04FF00073A4
:10579000744C983C2360F4E0FFE7704BDB6C1B68B3
:1057A0006F4C483CA34274D96C4BDB6C1B686C4C4F
:1057B000903CA34201D1082366E0684BDB6C1B6878
:1057C000684C903CA34201D108235DE0634BDB6C45
:1057D0001B68634C303CA34201D1082354E05F4B6B
:1057E000DB6C1B685F4C303CA34201D108234BE0CB
:1057F0005A4BDB6C1B685A4C783CA34201D15B15B9
:1058000042E0564BDB6C1B68564C783CA34201D1FE
:105810005B1539E0514BDB6C1B68514C183CA342C3
:1058200001D15B1530E04D4BDB6C1B684D4C183CD7
:10583000A34201D15B1527E0484BDB6C1B68484C49
:10584000603CA34202D14FF400231DE0434BDB6CCC
:105850001B68444C603CA34202D14FF4002313E088
:105860003E4BDB6C1B683E4CA34202D14FF400233D
:105870000AE03A4BDB6C1B683A4CA34202D14FF46E
:10588000002301E04FF00073354CA03CE36078E06A
:10589000FFE7324BDB6C1B68314C903CA34201D1DB
:1058A00008236CE02D4BDB6C1B682E4C903CA34214
:1058B00001D1082363E0294BDB6C1B68284C303C8A
:1058C000A34201D108235AE0244BDB6C1B68254C12
:1058D000303CA34201D1082351E0204BDB6C1B6814
:1058E0001F4C783CA34201D15B1548E01B4BDB6C9D
:1058F0001B681C4C783CA34201D15B153FE0174B61
:10590000DB6C1B68164C183CA34201D15B1536E0DA
:10591000124BDB6C1B68134C183CA34201D15B1586
:105920002DE00E4BDB6C1B680D4C603CA34202D19A
:105930004FF4002323E0094BDB6C1B68094C603CEF
:10594000A34202D14FF4002319E0044BDB6C1B6827
:10595000034CA34208D14FF4002310E03808002084
:10596000A0600240A0640240F84BDB6C1B68F84C5E
:10597000A34202D14FF4002301E04FF00073F54C35
:10598000A360F24BDB6C1B68F14C483CA34275D919
:10599000EE4BDB6C1B68EF4C1034A34201D10423A7
:1059A00068E0EA4BDB6C1B68E94C903CA34201D1F8
:1059B00004235FE0E54BDB6C1B68E64C7034A342CC
:1059C00001D1042356E0E14BDB6C1B68E04C303C1A
:1059D000A34201D104234DE0DC4BDB6C1B68DD4CA2
:1059E0002834A34201D19B1544E0D84BDB6C1B68E3
:1059F000D74C783CA34201D19B153BE0D34BDB6CE9
:105A00001B68D44C8834A34201D19B1532E0CF4BA4
:105A1000DB6C1B68CE4C183CA34201D19B1529E0DE
:105A2000CA4BDB6C1B68CB4C4034A34202D14FF411
:105A300080231FE0C54BDB6C1B68C54C603CA34258
:105A400002D14FF4802315E0C04BDB6C1B68C14CC6
:105A5000A034A34202D14FF480230BE0BB4BDB6C9C
:105A60001B68BB4CA34203D14FF4802302E005E046
:105A70004FF08073B64C943C236071E1B34BDB6C08
:105A80001B68B44CB834A34275D9B04BDB6C1B68AF
:105A9000B04C1034A34201D1042367E0AB4BDB6C64
:105AA0001B68AB4C903CA34201D104235EE0A74BA2
:105AB000DB6C1B68A74C7034A34201D1042355E072
:105AC000A24BDB6C1B68A24C303CA34201D10423E7
:105AD0004CE09E4BDB6C1B689E4C2834A34201D1EA
